:100000000C945B000C9483000C9483000C9483008C
:100010000C9483000C9483000C9483000C94830054
:100020000C9483000C9483000C9483000C94830044
:100030000C9483000C9483000C9483000C94830034
:100040000C94BA010C9483000C94E1060C94830088
:100050000C9483000C9483000C9483000C94830014
:100060000C9483000C948300000000070002010040
:100070000003040600000000000000000102040864
:100080001020408001020408102001020408102002
:10009000040404040404040402020202020203032E
:1000A000030303030000232629000025282B00005A
:1000B00024272A002D0411241FBECFEFD4E0DEBF79
:1000C000CDBF11E0A0E0B1E0E8EEF2E102C00590A2
:1000D0000D92A838B107D9F712E0A8E8B1E001C045
:1000E0001D92A032B107E1F710E0C6EBD0E004C0EA
:1000F0002297FE010E946F09C43BD107C9F70E94F5
:10010000AF010C9473090C94000040E855E260E0E4
:1001100070E08AE991E00E941A046EE071E08AE9D9
:1001200091E00E9400066BE271E08AE991E00E9492
:10013000000668E471E08AE991E00E9400066EE042
:1001400071E08AE991E00E94000661E080910C0173
:100150000E94620360E080918C010E94620360E073
:1001600080910A010E94620360E0809108010E9470
:10017000620360E0809106010E94620308956F921D
:100180007F928F929F92AF92BF92CF92DF92EF9227
:10019000FF920F931F938091020190910301892B8D
:1001A00049F10E9436029B01AC0180918801909137
:1001B0008901A0918A01B0918B01281B390B4A0B50
:1001C0005B0B8091000190910101AA2797FDA095FA
:1001D000BA2F281739074A075B0708F477C065E686
:1001E00071E08AE991E00E940006109203011092EA
:1001F00002016CC00E9436029B01AC018091880113
:1002000090918901A0918A01B0918B01281B390B33
:100210004A0B5B0B8091040190910501AA2797FD81
:10022000A095BA2F281739074A075B0708F44EC074
:100230000E9436027B018C016093880170938901D2
:1002400080938A0190938B0180918C010E94E80237
:100250003C0180910A010E94E8026C018091080132
:100260000E94E8025C01809106010E94E8024C01B4
:10027000B801A7018AE991E00E94E7046CE28AE9EB
:1002800091E00E943E04B6018AE991E00E940A05CD
:100290006CE28AE991E00E943E04B5018AE991E0AE
:1002A0000E940A056CE28AE991E00E943E04B401D2
:1002B0008AE991E00E940A056CE28AE991E00E94D5
:1002C0003E04B3018AE991E00E9418061F910F9144
:1002D000FF90EF90DF90CF90BF90AF909F908F9066
:1002E0007F906F900895AF92BF92CF92DF92EF927E
:1002F000FF920F931F93CF93DF936C015B01C0E0DC
:10030000D0E0C817D90704F561E080910C010E9484
:100310008103C501B7FC0196959587957C0100275F
:10032000F7FC0095102FC801B7010E94710260E030
:1003300080910C010E948103C801B7010E947102E3
:100340002196CC15DD0504F3DF91CF911F910F911C
:10035000FF90EF90DF90CF90BF90AF900895CFEFD8
:10036000D4E0DEBFCDBF0E94A3020E9485000E94A0
:10037000BF00FDCF1F920F920FB60F9211242F9343
:100380008F939F93AF93BF93809196019091970124
:10039000A0919801B09199010196A11DB11D809382
:1003A000960190939701A0939801B0939901809141
:1003B000920190919301A0919401B0919501805088
:1003C000904CAF4FBF4F8093920190939301A093B5
:1003D0009401B09395018091920190919301A09125
:1003E0009401B091950181589E43A040B040A0F186
:1003F0008091920190919301A0919401B091950107
:1004000080589E43A040B040809392019093930106
:10041000A0939401B093950180918E0190918F01EA
:10042000A0919001B09191010196A11DB11D809301
:100430008E0190938F01A0939001B09391018091D0
:10044000920190919301A0919401B09195018158EE
:100450009E43A040B04060F6BF91AF919F918F91B5
:100460002F910F900FBE0F901F9018952FB7F894F3
:1004700080918E0190918F01A0919001B091910196
:100480002FBFBC01CD0108956FB7F89486B5282F12
:10049000332744275527A89B09C02115310541055D
:1004A000510521F420E031E040E050E080919601D8
:1004B00090919701A0919801B09199016FBFBA2FC7
:1004C000A92F982F8827820F931FA41FB51F22E002
:1004D000880F991FAA1FBB1F2A95D1F7BC01CD0118
:1004E0000895AF92BF92CF92DF92EF92FF920F9357
:1004F0001F935B016C010E9436027B018C010E94FC
:100500003602DC01CB018E199F09A00BB10BA81696
:10051000B906CA06DB0698F71F910F91FF90EF907E
:10052000DF90CF90BF90AF900895FC01319751F0CC
:10053000EE0FFF1FEE0FFF1F32978FB7F894319722
:10054000F1F78FBF0895789484B5826084BD84B537
:10055000816084BD85B5826085BD85B5816085BDBE
:1005600080916E00816080936E0080918100826036
:1005700080938100809181008160809381008091CF
:1005800080008160809380008091B10084608093BE
:10059000B1008091B00081608093B00080917A00BA
:1005A000846080937A0080917A00826080937A00E0
:1005B00080917A00816080937A0080917A008068CF
:1005C00080937A001092C100089580937F0108956E
:1005D00090917F01292F332746E0220F331F4A9540
:1005E000E1F78F70822B80937C0080917A00806489
:1005F00080937A0080917A0086FDFCCF409178004C
:10060000809179009927382F2227842F9927822BD0
:10061000932B08951F93CF93DF93182FEB0161E085
:100620000E946203E12FFF27E859FF4F8491833036
:1006300051F480918000806880938000D09389007D
:10064000C09388003BC0843051F480918000806268
:1006500080938000D0938B00C0938A002FC081309C
:1006600039F4209729F184B5806884BDC7BD26C0C0
:10067000823039F42097E1F084B5806284BDC8BD32
:100680001DC0863041F48091B00080688093B00036
:10069000C093B30013C0873041F48091B0008062F2
:1006A0008093B000C093B40009C0C038D10514F4E1
:1006B00060E001C061E0812F0E948103DF91CF9152
:1006C0001F910895282F3327C90184589F4FFC019B
:1006D000949120573F4FF9018491882389F0E82FA6
:1006E000FF27E255FF4F8491E82FFF27662329F467
:1006F000909580818923808308958081892B8083D0
:100700000895482F5527CA0188599F4FFC0124910D
:10071000CA0184589F4FFC01949140575F4FFA01E2
:1007200034913323C9F1222331F1233021F4809114
:1007300080008F7705C0243031F4809180008F7D58
:100740008093800018C0213019F484B58F7704C0DD
:10075000223021F484B58F7D84BD0DC0263021F474
:100760008091B0008F7705C0273029F48091B000C8
:100770008F7D8093B000E32FFF27E755FF4F8491D3
:10078000E82FFF27662329F49095808189238083B1
:1007900008958081892B80830895482F5527CA01A9
:1007A00088599F4FFC012491CA0184589F4FFC0136
:1007B000949140575F4FFA013491332319F480E04C
:1007C00090E00895222331F1233021F480918000BC
:1007D0008F7705C0243031F4809180008F7D809325
:1007E000800018C0213019F484B58F7704C02230FE
:1007F00021F484B58F7D84BD0DC0263021F4809115
:10080000B0008F7705C0273029F48091B0008F7D2C
:100810008093B000E32FFF27EC55FF4F8491E82F22
:10082000FF278081892319F081E090E0089580E01E
:1008300090E00895CB01BA010E94600608950E94DD
:100840009D06992708950E94B40608950E94D8062F
:100850000895862F0E949506089584E891E090936C
:100860009B0180939A010895DC01ED91FC91119711
:100870000190F081E02DCD01099508950E94340486
:1008800008950F931F93CF93DF938C01EB01888121
:10089000882341F08991682FC8010E943E04888115
:1008A0008823C1F7DF91CF911F910F9108952F9267
:1008B0003F924F925F926F927F928F929F92AF92F0
:1008C000BF92CF92DF92EF92FF920F931F93CF933D
:1008D000DF93CDB7DEB7A0970FB6F894DEBF0FBE9B
:1008E000CDBF1C016A017B01882499245401411564
:1008F00051056105710521F460E30E943E0442C088
:10090000422E552466247724840181E090E08C0FE8
:100910009D1F080F191FC701B601A30192010E9474
:100920003009DC01CB01F80180830894811C911C03
:10093000A11CB11CC701B601A30192010E9430099C
:1009400069017A012115310541055105E9F6811446
:100950009104A104B104B1F0FE01E80DF91D60811C
:100960006A3010F4605D01C0695CC1010E943E0400
:10097000089481089108A108B10881149104A10488
:10098000B10451F7A0960FB6F894DEBF0FBECDBFED
:10099000DF91CF911F910F91FF90EF90DF90CF905B
:1009A000BF90AF909F908F907F906F905F904F908F
:1009B0003F902F9008952AE00E94570408959B01CC
:1009C00044275527BA01A9010E94DB040895EF923C
:1009D000FF920F931F93CF93DF93EC017A018B016A
:1009E00077FF0BC06DE20E943E0410950095F094D5
:1009F000E094E11CF11C011D111D2AE0B801A701C2
:100A0000CE010E945704DF91CF911F910F91FF906B
:100A1000EF9008959B01442737FD4095542FBA016C
:100A2000A9010E94E70408952115310521F4642FDE
:100A30000E943E0408952A30310519F40E94E7040B
:100A400008950E94570408956F927F928F929F920B
:100A5000AF92BF92CF92DF92EF92FF920F931F93CC
:100A6000CF93DF933C015A016B01922E20E030E0DE
:100A700040E050E0C601B5010E947E07882344F49F
:100A80006DE2C3010E943E04D7FAD094D7F8D09407
:100A90000F2EF0E0EF2EF0E0FF2EF0E00F2FFFE33F
:100AA0001F2FF02D8824C92DDD27209781F020E00D
:100AB00030E040E251E4C801B7010E9482077B01A7
:100AC0008C018394882D99278C179D0780F3A801AA
:100AD0009701C601B5010E941A075B016C010E94D3
:100AE000EF077B018C0197FD03C00E941D0818C011
:100AF000DC01CB0181709070A070B070A8019701EB
:100B00005695479537952795822B932BA42BB52B7C
:100B1000BC01CD010E941D089B01AC010E941A0777
:100B20009B01AC01C601B5010E9419075B016C0174
:100B3000B801A701C3010E94DB04992029F066E8EF
:100B400071E0C3010E9441049A948FEF981661F1FD
:100B500020E030E040E251E4C601B5010E94CD083A
:100B60005B016C010E94EA07DC01CB018C01BC0136
:100B7000C3010E940A05C801AA2797FDA095BA2FB4
:100B8000BC01CD010E941D08DC01CB019C01AD011F
:100B9000C601B5010E941907DC01CB015C016D01A2
:100BA0009A948FEF9816A1F6DF91CF911F910F9134
:100BB000FF90EF90DF90CF90BF90AF909F908F907D
:100BC0007F906F90089522E00E94240508950F936E
:100BD0001F938C016DE00E943E046AE0C8010E94F0
:100BE0003E041F910F9108950F931F938C01C8012C
:100BF0000E943E04C8010E94E7051F910F910895CD
:100C00000F931F938C01C8010E944104C8010E94E8
:100C1000E7051F910F9108950F931F938C01C80151
:100C20000E943404C8010E94E7051F910F910895A6
:100C30000F931F938C01C8010E940A05C8010E94EE
:100C4000E7051F910F9108950F931F938C01C80121
:100C50000E94DF04C8010E94E7051F910F910895CB
:100C60000F931F938C01C8010E94E704C8010E94E2
:100C7000E7051F910F9108950F931F938C01C801F1
:100C80000E94DB04C8010E94E7051F910F9108959F
:100C90000F931F938C01C8010E941405C8010E9484
:100CA000E7051F910F9108950F931F938C01C801C1
:100CB0000E94E305C8010E94E7051F910F91089566
:100CC0009B01AC0157FF04C06F5F7F4F8F4F9F4F59
:100CD0009595879577956795605C7D4B804F9F4F85
:100CE0000E945209DA01C9010197A109B109292F0E
:100CF0003A2F4B2F552747FD5A950196A11DB11D3F
:100D00002093C50081508093C4008091C100806110
:100D10008093C1008091C10088608093C100809160
:100D2000C10080688093C1000895982F8091C00011
:100D300085FFFCCF9093C600089540919E0150918D
:100D40009F0180919C0190919D01481B590BCA0104
:100D500080589F4F9C0197FF03C09A0121503F4F3D
:100D60002078821B930B089580919E0190919F01A2
:100D700060919C0170919D018617970719F48FEF80
:100D80009FEF0895FB01E056FE4F8081AB014F5F5E
:100D90005F4F9A0157FF03C09B0120583F4F2078B7
:100DA000421B530B50939D0140939C01992708953A
:100DB00080919C0190919D0190939F0180939E0151
:100DC00008951F920F920FB60F9211242F933F9305
:100DD0004F938F939F93EF93FF934091C600E091C1
:100DE0009E01F0919F019F012F5F3F4FC90137FF87
:100DF00003C0CF0180589F4F8078281B390B80910A
:100E00009C0190919D012817390739F0E056FE4F5B
:100E1000408330939F0120939E01FF91EF919F911A
:100E20008F914F913F912F910F900FBE0F901F9078
:100E300018955058BB27AA270ED075C166D130F03F
:100E40006BD120F031F49F3F11F41EF45BC10EF41E
:100E5000E095E7FB51C1E92F77D180F3BA1762071C
:100E600073078407950718F071F49EF58FC10EF48F
:100E7000E0950B2EBA2FA02D0B01B90190010C01AA
:100E8000CA01A0011124FF27591B99F0593F50F4C2
:100E9000503E68F11A16F040A22F232F342F44271A
:100EA000585FF3CF469537952795A795F040539512
:100EB000C9F77EF41F16BA0B620B730B840BBAF0E2
:100EC0009150A1F0FF0FBB1F661F771F881FC2F74D
:100ED0000EC0BA0F621F731F841F48F48795779561
:100EE0006795B795F7959E3F08F0B3CF9395880F18
:100EF00008F09927EE0F979587950895D9D008F4B3
:100F000081E008950CD00FC107D140F0FED030F041
:100F100021F45F3F19F0F0C0511139C1F3C014D171
:100F200098F39923C9F35523B1F3951B550BBB27B0
:100F3000AA2762177307840738F09F5F5F4F220F5D
:100F4000331F441FAA1FA9F333D00E2E3AF0E0E856
:100F500030D091505040E695001CCAF729D0FE2FA2
:100F600027D0660F771F881FBB1F26173707480734
:100F7000AB07B0E809F0BB0B802DBF01FF279358EA
:100F80005F4F2AF09E3F510568F0B6C000C15F3F39
:100F9000ECF3983EDCF3869577956795B795F795D2
:100FA0009F5FC9F7880F911D9695879597F90895CA
:100FB000E1E0660F771F881FBB1F62177307840766
:100FC000BA0720F0621B730B840BBA0BEE1F88F775
:100FD000E095089504D06894B111D9C00895BCD0AB
:100FE00088F09F5790F0B92F9927B751A0F0D1F012
:100FF000660F771F881F991F1AF0BA95C9F712C09C
:10100000B13081F0C3D0B1E00895C0C0672F782F10
:101010008827B85F39F0B93FCCF386957795679507
:10102000B395D9F73EF490958095709561957F4F73
:101030008F4F9F4F0895E89409C097FB3EF4909519
:101040008095709561957F4F8F4F9F4F9923A9F0A1
:10105000F92F96E9BB279395F69587957795679530
:10106000B795F111F8CFFAF4BB0F11F460FF1BC074
:101070006F5F7F4F8F4F9F4F16C0882311F096E907
:1010800011C0772321F09EE8872F762F05C06623B5
:1010900071F096E8862F70E060E02AF09A95660F6E
:1010A000771F881FDAF7880F9695879597F9089527
:1010B000990F0008550FAA0BE0E8FEEF1616170669
:1010C000E807F907C0F012161306E407F50798F0D1
:1010D000621B730B840B950B39F40A2661F0232BEA
:1010E000242B252B21F408950A2609F4A140A69566
:1010F0008FEF811D811D089597F99F6780E870E04B
:1011000060E008959FEF80EC089500240A9416167D
:10111000170618060906089500240A9412161306E5
:10112000140605060895092E0394000C11F4882373
:1011300052F0BB0F40F4BF2B11F460FF04C06F5F8F
:101140007F4F8F4F9F4F089557FD9058440F551F65
:1011500059F05F3F71F04795880F97FB991F61F039
:101160009F3F79F087950895121613061406551FB0
:10117000F2CF4695F1DF08C0161617061806991F1C
:10118000F1CF86957105610508940895E894BB2711
:1011900066277727CB0197F908950BD0C4CFB5DF29
:1011A00028F0BADF18F0952309F0A6CFABCF1124B1
:1011B000EECFCADFA0F3959FD1F3950F50E0551FF6
:1011C000629FF001729FBB27F00DB11D639FAA279C
:1011D000F00DB11DAA1F649F6627B00DA11D661FEB
:1011E000829F2227B00DA11D621F739FB00DA11D0C
:1011F000621F839FA00D611D221F749F3327A00DC6
:10120000611D231F849F600D211D822F762F6A2F61
:1012100011249F5750408AF0E1F088234AF0EE0FE6
:10122000FF1FBB1F661F771F881F91505040A9F7F3
:101230009E3F510570F060CFAACF5F3FECF3983E20
:10124000DCF3869577956795B795F795E7959F5F5A
:10125000C1F7FE2B880F911D9695879597F90895F4
:10126000A1E21A2EAA1BBB1BFD010DC0AA1FBB1FAA
:10127000EE1FFF1FA217B307E407F50720F0A21B1C
:10128000B30BE40BF50B661F771F881F991F1A9489
:1012900069F760957095809590959B01AC01BD01B3
:1012A000CF01089597FB092E05260ED057FD04D0D7
:1012B000D7DF0AD0001C38F4509540953095219521
:1012C0003F4F4F4F5F4F0895F6F79095809570957B
:1012D00061957F4F8F4F9F4F0895EE0FFF1F059031
:0812E000F491E02D0994FFCF09
:1012E800B80B0100E8030100020003000D002D2DDA
:1012F8002D2D2D2D2D2D2D2D2D2D2D2D2D2D2D2D16
:101308002D2D2D2D2D2D2D2D2D2D0054656C6C6919
:101318006E672053746F72696573207769746820EB
:1013280053656E736F72730049545020537072691D
:101338006E672032303130207C204F70656E4C6FE4
:10134800676765720074696D652C616363782C61E9
:101358006363792C6163637A2C6C69676874000134
:081368000000000029042E0022
:00000001FF
